:1000000010C01DC01CC01BC01AC019C018C017C02A
:1000100047C015C0062080FF000000062080FFFEBC
:10002000FDFC11241FBECFE9CDBF20E0A0E6B0E06B
:1000300001C01D92A738B207E1F783D0AFC1E0CF6E
:100040002091610091E0920F9F71909361009EBB9F
:100050008DBB84E28CBB86E28CBBE199FECF2EBBCC
:1000600084E18CBB86E18CBB0895209164002F5FF6
:10007000273070F48091650090E067E070E06FD108
:10008000820F911DFC01EC5EFF4FE491E11101C074
:1000900020E0822F0895369A3699FECF85B10895D3
:1000A0001F920F920FB60F9211242F933F934F93ED
:1000B0005F936F937F938F939F93AF93BF93EF93D0
:1000C000FF93809163008F3F19F08F5F80936300EF
:1000D00080916300823369F490916400809165009F
:1000E000880F880F880F892BABDF10928800109241
:1000F0008700D1DF8D3768F4809160008F5F809337
:100100006000893040F08091660086958D5F809315
:10011000660010926000FF91EF91BF91AF919F91A7
:100120008F917F916F915F914F913F912F910F90A0
:100130000FBE0F901F901895815010F08895FCCF3E
:10014000089582E087BB89EF88BB80E481BD789405
:1001500085B7877C806285BF479A81E687B984EC42
:1001600086B981E28FBD81E083BF40E250E060E06C
:1001700070E087E690E004D180916100E82FF0E024
:10018000E959FF4F20812F3F21F4803210F48F5F17
:10019000F5CF80936100822F887790E053E09595AA
:1001A00087955A95E1F780936500809165008230CC
:1001B00010F010926500822F877080936400809108
:1001C0006400873010F01092640027FF18C04DDFE4
:1001D0008093640080918700909188008A3A2AEA8F
:1001E000920769F09C012170332741E02427880F92
:1001F000991F822B932B9093880080938700909176
:10020000640080916500880F880F880F892B8068B3
:1002100017DF809165002091640090E067E070E056
:100220009ED0820F911DFC01EC5EFF4FE491E093A4
:100230006200E093660080918700909188008A3A7E
:100240009A4A09F519BC82E377DF25DF8A3A30F450
:10025000803A30F4813930F4C1E005C0C4E003C015
:10026000C3E001C0C2E0DFEFC15038F0D9BD8AE081
:1002700063DF19BC84E160DFF7CF82E35DDF1092BA
:100280008800109287008091640081111BC08091CA
:10029000660089BD84E650DF809165008F5F8170C4
:1002A000880F880F880FCCDE19BC85E045DF809170
:1002B000660089BD82E340DF80916500880F880F6A
:1002C000880FBEDE809162008D3F11F4DFEF11C018
:1002D0008E3F11F4CFEF04C08C3FC9F5CFEF15C0AE
:1002E000C9BD81E029DF19BC82E026DFF9CF82E3B6
:1002F00023DFC6E0C150D9F3D9BD81E01DDF19BCB1
:1003000082E01ADFF7CF84E617DFD4E0D15039F06E
:10031000C9BD85E011DF19BC8CE00EDFF7CF89E1A4
:100320000BDFD4E0D15039F0C9BD89E105DF19BC3C
:1003300089E102DFF7CF8CE0FFDED4E0D15019F382
:10034000C9BD85E0F9DE19BC8CE0F6DEF7CF8093FD
:1003500066008091660089BD8AE0EEDEFACF002457
:10036000552704C0080E591F880F991F009729F0C0
:1003700076956795B8F37105B9F7802D952F089597
:10038000A82F862FE82FE199FECF05C0EEBBE09A9B
:10039000E3950DB20D924150C8F70895F894FFCF40
:00000001FF
