:1000000011C01EC01DC01CC01BC01AC019C018C022
:100010006AC016C0062080FF00000000062080FF96
:10002000FEFDFC0011241FBECFE9CDBF20E0A0E6FD
:10003000B0E001C01D92A536B207E1F79AD05CC1CD
:10004000DFCF8091620090E0019687709927E09160
:100050006300F0E023E0EE0FFF1F2A95E1F7E80FC1
:10006000F91FEC5EFF4FE491E11101C080E00895BB
:10007000F8949091600022E0290F2F712093600086
:100080002EBB8DBB84E28CBB86E28CBBE199FECF9C
:100090009EBB84E18CBB86E18CBBE199FECF809155
:1000A00060008F5F8EBB6295607F462B4DBB84E204
:1000B0008CBB86E28CBBE199FECF9F5F9EBB84E147
:1000C0008CBB86E18CBBE199FECF78940895E199D1
:1000D000FECF8EBB81E08CBB8DB30895369A3699E6
:1000E000FECF85B108951F920F920FB60F92112483
:1000F0002F933F934F935F936F937F938F939F9330
:10010000AF93BF93EF93FF93809161008F3F59F0BE
:100110008F5F80936100823331F44091620060917F
:10012000630080E0A5DFFF91EF91BF91AF919F91B8
:100130008F917F916F915F914F913F912F910F9090
:100140000FBE0F901F901895815010F08895FCCF2E
:1001500008952FEF815060F029BD962F915010F037
:100160008895FCCF19BC942F9150A0F38895FCCFB3
:10017000089582E087BB89EF88BB80E481BD7894D5
:1001800085B7877C806285BF479A81E687B984EC12
:1001900086B981E28FBD81E083BFF89480916000D1
:1001A00096DFC82F80916000CF3F31F48E3120F46C
:1001B0008F5F80936000F2CF8F5F89DF7894CF3FAD
:1001C000B1F09C2F9F779093640084FB992790F95E
:1001D00090936300877080936200C7FF08C031DF8F
:1001E00080936200809164008F5F809364004091EF
:1001F00062006091630080916400806839DFE09163
:10020000630080916200F0E093E0EE0FFF1F9A958B
:10021000E1F7E80FF11DEC5EFF4FC491809164009F
:100220008031C0F019BC82E38FDF58DF8A3A30F4A6
:10023000803A30F4813930F481E005C084E003C0B5
:1002400083E001C082E044E16AE083DF1092640051
:1002500082E37ADF80916200811118C0C9BD84E613
:1002600073DF6091630070E06F5F7F4F617077278D
:1002700040E080E0FDDE19BC85E066DFC9BD82E3B9
:1002800063DF6091630040E080E0F2DECD3F59F033
:10029000CE3F21F0CC3F71F0D0E02AC042E061E0D7
:1002A00081E057DFFBCF42E061E085E052DF82E38F
:1002B0004BDFF9CF4CE065E083E04BDF89E144DFC1
:1002C00049E169E183E045DF8CE03EDF4CE065E039
:1002D00083E03FDF84E638DFEDCFDF5FD93028F001
:1002E000EC2FE695C3E0CE0FD0E0C9BD8AE02CDF4D
:0C02F000F5DE8D37C8F7F1CFF894FFCF92
:00000001FF
