:1000000011C01EC01DC01CC01BC01AC019C018C022
:1000100062C016C0062080FF00000000062080FF9E
:10002000FEFDFC0011241FBECFE9CDBF20E0A0E6FD
:10003000B0E001C01D92A536B207E1F792D05AC1D7
:10004000DFCF809162008F5F883078F4E0916300A9
:10005000F0E093E0EE0FFF1F9A95E1F7E80FF11D36
:10006000EC5EFF4FE491E111089580E00895F8946B
:100070009091600022E0290F2F7120936000E19998
:10008000FECF2EBB8DBB84E28CBB86E28CBBE1999C
:10009000FECF9EBB84E18CBB86E18CBBE199FECF99
:1000A000809160008F5F8EBB6295607F462B4DBB59
:1000B00084E28CBB86E28CBBE199FECF9F5F9EBB46
:1000C00084E18CBB86E18CBB78940895369A36998E
:1000D000FECF85B108951F920F920FB60F92112493
:1000E0002F933F934F935F936F937F938F939F9340
:1000F000AF93BF93EF93FF93809161008F3F59F0CF
:100100008F5F80936100823331F44091620060918F
:10011000630080E0ACDFFF91EF91BF91AF919F91C1
:100120008F917F916F915F914F913F912F910F90A0
:100130000FBE0F901F901895815010F08895FCCF3E
:1001400008952FEF815060F029BD962F915010F047
:100150008895FCCF19BC942F9150A0F38895FCCFC3
:10016000089582E087BB89EF88BB80E481BD7894E5
:1001700085B7877C806285BF479A81E687B984EC22
:1001800086B981E28FBD81E083BFF894E199FECF0B
:1001900021E0809160008EBB2CBB9DB380916000FC
:1001A0009F3F31F48E3120F48F5F80936000F1CF58
:1001B0008F5F8EBB81E08CBB8DB378949F3FB1F095
:1001C000292F2F772093640084FB222720F9209386
:1001D000630087708093620097FF08C032DF8093CE
:1001E0006200809164008F5F8093640040916200A0
:1001F0006091630080916400806839DFE091630062
:1002000080916200F0E093E0EE0FFF1F9A95E1F716
:10021000E80FF11DEC5EFF4FC491809164008031C6
:10022000C0F019BC82E388DF51DF8A3A30F4803AAB
:1002300030F4813930F481E005C084E003C083E00C
:1002400001C082E044E16AE07CDF1092640082E356
:1002500073DF80916200811117C0C9BD84E66CDF35
:10026000609163006F5F623008F060E040E080E022
:10027000FEDE19BC85E060DFC9BD82E35DDF609111
:10028000630040E080E0F3DECD3F59F0CE3F21F047
:10029000CC3F71F0D0E02AC042E061E081E051DF64
:1002A000FBCF42E061E085E04CDF82E345DFF9CF40
:1002B0004CE065E083E045DF89E13EDF49E169E14B
:1002C00083E03FDF8CE038DF4CE065E083E039DF3E
:1002D00084E632DFEDCFDF5FD93028F0EC2FE695F2
:1002E000C3E0CE0FD0E0C9BD82E326DFEFDE8D375D
:0802F000C8F7F1CFF894FFCF2D
:00000001FF
