:1000000011C01EC01DC01CC01BC01AC019C018C022
:1000100018C016C0FD81407F00000000FD81407FB8
:100020007E7D7C0011241FBECFE9CDBF20E0A0E67D
:10003000B0E001C01D92A536B207E1F780D05DC1E6
:10004000DFCF1F920F920FB60F9211240F900FBEA9
:100050000F901F901895815010F08895FCCF08954F
:10006000369A3699FECF85B108958091620090E06E
:10007000019687709927E0916300F0E023E0EE0F8E
:10008000FF1F2A95E1F7E80FF91FEC5EFF4FE4919F
:10009000E11101C080E008959091610022E0290FF4
:1000A0002F7120936100E199FECF2EBB8DBB84E2BE
:1000B0008CBB86E28CBBE199FECF9EBB84E18CBBFE
:1000C00086E18CBBE199FECF809161008F5F8EBB92
:1000D0006295607F462B4DBB84E28CBB86E28CBB75
:1000E000E199FECF9F5F9EBB84E18CBB86E18CBB18
:1000F0000895E199FECF8EBB81E08CBB8DB308954E
:100100002FEF815060F029BD962F915010F0889507
:10011000FCCF19BC942F9150A0F38895FCCF089583
:1001200019BC16BE181624F4880F8F5F89BD089578
:10013000882321F08195880F8F5F86BF089583E023
:1001400087BB80EF88BB80E481BD789485B7877CCE
:10015000806285BF479A83E687B984EC86B980912F
:100160006100C7DFC82F80916100CF3F31F48E312D
:1001700020F48F5F80936100F2CF8F5FBADFCF3FB3
:10018000C9F0C093640084FB992790F990936300B1
:1001900087708093620064DF63DF8F3B48F065DF28
:1001A00080936200809164008F5F8093640002C03E
:1001B000109264004091620060916300809164003D
:1001C0006BDFBB9AC39AE0916300F0E083E0EE0F2F
:1001D000FF1F8A95E1F780916200E80FF11DEC5E48
:1001E000FF4FC49181E687B984EC86B981EA8FBD5F
:1001F00081E083BF19BC16BE809164008031E0F0BD
:1002000019BC82E328DF2CDF8A3A30F4803A30F4DC
:10021000813930F481E005C084E003C083E001C08F
:1002200082E044E16AE06CDF82E315DF4091620026
:100230006091630080E030DF8091620081111BC01B
:100240008C2F6EDF84E607DF6091630070E06F5FE4
:100250007F4F6170772740E080E01EDF19BC16BE3B
:1002600085E0F9DE8C2F5CDF82E3F5DE40E0609113
:10027000630080E011DFCD3759F0CE3721F0CC3765
:1002800071F0D0E032C042E061E081E039DFFBCFC5
:1002900042E061E085E034DF82E3DDDEF9CF4CE06F
:1002A00065E083E02DDF89E1D6DE49E169E183E0A5
:1002B00027DF8CE0D0DE4CE065E083E021DF84E6E0
:1002C000CADEEDCFDF5FD93028F0EC2FE695C3E032
:1002D000CE0FD0E0809160008C3358F48F5F809314
:1002E00060008C2F1DDF82E3B6DEBADE8D3788F723
:0E02F000E9CFCF37B1F7CFE3F4CFF894FFCFCB
:00000001FF
