:1000000011C01EC01DC01CC01BC01AC019C018C022
:1000100018C016C0FD81407F00000000FD81407FB8
:100020007E7D7C0011241FBECFE9CDBF20E0A0E67D
:10003000B0E001C01D92A636B207E1F783D064C1DB
:10004000DFCF1F920F920FB60F9211248F938091E2
:1000500061008F3F31F08F5F80936100823309F43C
:10006000C3988F910F900FBE0F901F9018958150DD
:1000700010F08895FCCF0895369A3699FECF85B159
:100080000895809163008F5F883078F4E091640078
:10009000F0E093E0EE0FFF1F9A95E1F7E80FF11DF6
:1000A000EC5EFF4FE491E111089580E00895909196
:1000B000620022E0290F2F7120936200E199FECFA8
:1000C0002EBB8DBB84E28CBB86E28CBBE199FECF5C
:1000D0009EBB84E18CBB86E18CBBE199FECF809115
:1000E00062008F5F8EBB6295607F462B4DBB84E2C2
:1000F0008CBB86E28CBBE199FECF9F5F9EBB84E107
:100100008CBB86E18CBB08952FEF815060F029BD38
:10011000962F915010F08895FCCF19BC942F9150D8
:10012000A0F38895FCCF089519BC16BE882349F02A
:1001300024F0880F8F5F89BD08958195880F8F5FA8
:1001400086BF089583E087BB80EF88BB80E481BDD4
:10015000789485B7877C806285BF479A83E687B9A4
:1001600084EC86B9E199FECF21E0809162008EBBDC
:100170002CBB9DB3809162009F3F31F48E3120F4FF
:100180008F5F80936200F1CF8F5F8EBB81E08CBB6D
:100190008DB39F3FC9F09093650084FB992790F938
:1001A0009093640087708093630066DF65DF8F3B08
:1001B00048F067DF80936300809165008F5F8093D4
:1001C000650002C010926500409163006091640078
:1001D000809165006CDFBB9AC39AE0916400F0E007
:1001E00083E0EE0FFF1F8A95E1F780916300E80F2F
:1001F000F11DEC5EFF4FC49181E687B981EA8FBDA6
:1002000081E083BF19BC16BE809165008031D8F0B3
:1002100082E32DDF31DF8A3A30F4803A30F48139DD
:1002200030F481E005C084E003C083E001C082E0D7
:1002300044E16AE069DF82E31ADF40916300609184
:10024000640080E034DF8091630081111BC08C2F3B
:100250006BDF84E60CDF6091640070E06F5F7F4FBE
:100260006170772740E080E022DF19BC16BE85E090
:10027000FEDE8C2F59DF82E3FADE40E060916400FD
:1002800080E015DFCD3759F0CE3721F0CC3771F053
:10029000D0E032C042E061E081E036DFFBCF42E0F7
:1002A00061E085E031DF82E3E2DEF9CF4CE065E03A
:1002B00083E02ADF89E1DBDE49E169E183E024DFD5
:1002C0008CE0D5DE4CE065E083E01EDF84E6CFDE27
:1002D000EDCFDF5FD93028F0EC2FE695C3E0CE0FED
:1002E000D0E0809160008C3358F48F5F8093600081
:1002F0008C2F1ADF82E3BBDEBFDE8D3788F7E9CFB4
:0C030000CF37B1F7CFE3F4CFF894FFCF74
:00000001FF
